:020000040800F2
:1000000000100020D9000008CD000008CD00000835
:10001000CD000008CD000008CD00000880B483B0FA
:1000200000AF41F21803C4F2020341F21802C4F215
:100030000202126842F004021A6040F60403C4F29D
:10004000010340F60402C4F20102126822F47002B5
:100050001A6040F60403C4F2010340F60402C4F23D
:100060000102126842F400121A6040F20003C2F268
:1000700000031B681A8842F400521A804FF00003F4
:100080007B6003E07B6803F101037B607A684BF6D9
:100090001F73C0F202039A42F4DD40F20003C2F281
:1000A00000031B681A8822F400521A804FF00003E4
:1000B0007B6003E07B6803F101037B607A684BF6A9
:1000C0001F73C0F202039A42F4DDCEE780B500AFA1
:1000D00000F002F880BD00BF80B586B000AF40F2EE
:1000E0000402C2F2000240F20003C2F20003D31A7B
:1000F000BB6040F28C13C0F600033B6140F200038A
:10010000C2F20003FB604FF000037B610FE03B692C
:100110001A78FB681A70FB6803F10103FB603B6906
:1001200003F101033B617B6903F101037B617A69A0
:10013000BB689A42EBD340F20402C2F2000240F2E2
:100140000403C2F20003D31A7B6040F20403C2F23C
:100150000003DBB2FB604FF000037B610BE0FB6848
:100160004FF000021A70FB6803F10103FB607B692A
:1001700003F101037B617A697B689A42EFD3FFF751
:0C0180004DFF07F11807BD4680BD00BF11
:04018C000C0801401A
:0400000508000000EF
:00000001FF
